{
  "contractName": "lrnTOlrt",
  "abi": [
    {
      "inputs": [
        {
          "name": "_lrtAddress",
          "type": "address"
        }
      ],
      "payable": false,
      "stateMutability": "nonpayable",
      "type": "constructor"
    },
    {
      "constant": false,
      "inputs": [
        {
          "name": "neoAddr",
          "type": "string"
        },
        {
          "name": "balance",
          "type": "uint256"
        }
      ],
      "name": "setNeoBalance",
      "outputs": [],
      "payable": false,
      "stateMutability": "nonpayable",
      "type": "function"
    },
    {
      "constant": false,
      "inputs": [
        {
          "name": "tronAddr",
          "type": "address"
        },
        {
          "name": "neoAddr",
          "type": "string"
        },
        {
          "name": "neoSig",
          "type": "bytes"
        }
      ],
      "name": "claim",
      "outputs": [],
      "payable": false,
      "stateMutability": "nonpayable",
      "type": "function"
    },
    {
      "constant": false,
      "inputs": [
        {
          "name": "tronAddr",
          "type": "address"
        },
        {
          "name": "neoSig",
          "type": "bytes"
        }
      ],
      "name": "verifyClaim",
      "outputs": [
        {
          "name": "",
          "type": "bool"
        }
      ],
      "payable": false,
      "stateMutability": "nonpayable",
      "type": "function"
    }
  ],
  "bytecode": "0x608060405234801561001057600080fd5b506040516020806121988339810180604052602081101561003057600080fd5b810190808051906020019092919050505033600360006101000a81548173ffffffffffffffffffffffffffffffffffffffff021916908373ffffffffffffffffffffffffffffffffffffffff16021790555080600460006101000a81548173ffffffffffffffffffffffffffffffffffffffff021916908373ffffffffffffffffffffffffffffffffffffffff1602179055506040516100cf90610132565b604051809103906000f0801580156100eb573d6000803e3d6000fd5b50600560006101000a81548173ffffffffffffffffffffffffffffffffffffffff021916908373ffffffffffffffffffffffffffffffffffffffff1602179055505061013f565b6114e580610cb383390190565b610b658061014e6000396000f3fe608060405234801561001057600080fd5b50600436106100415760003560e01c80634ebbe27e146100465780637797b9d01461010b5780637a070cdd1461027d575b600080fd5b6101096004803603604081101561005c57600080fd5b810190808035906020019064010000000081111561007957600080fd5b82018360208201111561008b57600080fd5b803590602001918460018302840111640100000000831117156100ad57600080fd5b91908080601f016020809104026020016040519081016040528093929190818152602001838380828437600081840152601f19601f82011690508083019250505050505050919291929080359060200190929190505050610370565b005b61027b6004803603606081101561012157600080fd5b81019080803573ffffffffffffffffffffffffffffffffffffffff1690602001909291908035906020019064010000000081111561015e57600080fd5b82018360208201111561017057600080fd5b8035906020019184600183028401116401000000008311171561019257600080fd5b91908080601f016020809104026020016040519081016040528093929190818152602001838380828437600081840152601f19601f820116905080830192505050505050509192919290803590602001906401000000008111156101f557600080fd5b82018360208201111561020757600080fd5b8035906020019184600183028401116401000000008311171561022957600080fd5b91908080601f016020809104026020016040519081016040528093929190818152602001838380828437600081840152601f19601f8201169050808301925050505050505091929192905050506104a5565b005b6103566004803603604081101561029357600080fd5b81019080803573ffffffffffffffffffffffffffffffffffffffff169060200190929190803590602001906401000000008111156102d057600080fd5b8201836020820111156102e257600080fd5b8035906020019184600183028401116401000000008311171561030457600080fd5b91908080601f016020809104026020016040519081016040528093929190818152602001838380828437600081840152601f19601f820116905080830192505050505050509192919290505050610772565b604051808215151515815260200191505060405180910390f35b600360009054906101000a900473ffffffffffffffffffffffffffffffffffffffff1673ffffffffffffffffffffffffffffffffffffffff163373ffffffffffffffffffffffffffffffffffffffff1614610433576040517f08c379a00000000000000000000000000000000000000000000000000000000081526004018080602001828103825260158152602001807f4e6f74206f776e6572206f6620636f6e7472616374000000000000000000000081525060200191505060405180910390fd5b806006836040518082805190602001908083835b6020831061046a5780518252602082019150602081019050602083039250610447565b6001836020036101000a0380198251168184511680821785525050505050509050019150509081526020016040518091039020819055505050565b81600190805190602001906104bb929190610a72565b50826000806101000a81548173ffffffffffffffffffffffffffffffffffffffff021916908373ffffffffffffffffffffffffffffffffffffffff1602179055506105068382610772565b1561076d57600460009054906101000a900473ffffffffffffffffffffffffffffffffffffffff1673ffffffffffffffffffffffffffffffffffffffff1663a9059cbb6000809054906101000a900473ffffffffffffffffffffffffffffffffffffffff166006600160405180828054600181600116156101000203166002900480156105ca5780601f106105a85761010080835404028352918201916105ca565b820191906000526020600020905b8154815290600101906020018083116105b6575b50509150509081526020016040518091039020546040518363ffffffff1660e01b8152600401808373ffffffffffffffffffffffffffffffffffffffff1673ffffffffffffffffffffffffffffffffffffffff16815260200182815260200192505050602060405180830381600087803b15801561064757600080fd5b505af115801561065b573d6000803e3d6000fd5b505050506040513d602081101561067157600080fd5b81019080805190602001909291905050506106f4576040517f08c379a000000000000000000000000000000000000000000000000000000000815260040180806020018281038252600c8152602001807f436c61696d206661696c6564000000000000000000000000000000000000000081525060200191505060405180910390fd5b60006006600160405180828054600181600116156101000203166002900480156107555780601f10610733576101008083540402835291820191610755565b820191906000526020600020905b815481529060010190602001808311610741575b50509150509081526020016040518091039020819055505b505050565b6000606083604051602001808273ffffffffffffffffffffffffffffffffffffffff1673ffffffffffffffffffffffffffffffffffffffff1660601b8152601401915050604051602081830303815290604052905060006107d682600060146109e8565b905060006107e785600260406109e8565b905060006107f886604160406109e8565b9050600061080987608160026109e8565b9050610813610af2565b600560009054906101000a900473ffffffffffffffffffffffffffffffffffffffff1673ffffffffffffffffffffffffffffffffffffffff16634828f4a2868487876040518563ffffffff1660e01b8152600401808581526020018460ff1660ff1681526020018381526020018281526020019450505050506040805180830381600087803b1580156108a557600080fd5b505af11580156108b9573d6000803e3d6000fd5b505050506040513d601f19601f8201168201806040525060408110156108de57600080fd5b81019080919050509050600560009054906101000a900473ffffffffffffffffffffffffffffffffffffffff1673ffffffffffffffffffffffffffffffffffffffff16638554d92c8260006002811061093357fe5b60200201518360016002811061094557fe5b60200201518888886040518663ffffffff1660e01b81526004018086815260200185815260200184815260200183815260200182815260200195505050505050602060405180830381600087803b15801561099f57600080fd5b505af11580156109b3573d6000803e3d6000fd5b505050506040513d60208110156109c957600080fd5b8101908080519060200190929190505050965050505050505092915050565b600081830184511015610a63576040517f08c379a000000000000000000000000000000000000000000000000000000000815260040180806020018281038252600c8152602001807f494e56414c49445f53495a45000000000000000000000000000000000000000081525060200191505060405180910390fd5b82828501015190509392505050565b828054600181600116156101000203166002900490600052602060002090601f016020900481019282601f10610ab357805160ff1916838001178555610ae1565b82800160010185558215610ae1579182015b82811115610ae0578251825591602001919060010190610ac5565b5b509050610aee9190610b14565b5090565b6040518060400160405280600290602082028038833980820191505090505090565b610b3691905b80821115610b32576000816000905550600101610b1a565b5090565b9056fea165627a7a7230582022939351631041badd9702fa42dbec3689a7b694e49bac4dba9e98a5944a23070029608060405234801561001057600080fd5b506114c5806100206000396000f3fe608060405234801561001057600080fd5b50600436106100415760003560e01c80631340d09a146100465780634828f4a2146100965780638554d92c14610121575b600080fd5b61007c6004803603604081101561005c57600080fd5b81019080803590602001909291908035906020019092919050505061018f565b604051808215151515815260200191505060405180910390f35b6100e3600480360360808110156100ac57600080fd5b8101908080359060200190929190803560ff16906020019092919080359060200190929190803590602001909291905050506101ce565b6040518082600260200280838360005b8381101561010e5780820151818401526020810190506100f3565b5050505090500191505060405180910390f35b610175600480360360a081101561013757600080fd5b8101908080359060200190929190803590602001909291908035906020019092919080359060200190929190803590602001909291905050506102c6565b604051808215151515815260200191505060405180910390f35b600061019a83610420565b7fffffffff00000001000000000000000000000000ffffffffffffffffffffffff806101c257fe5b83840914905092915050565b6101d6611455565b6000857fffffffff00000000ffffffffffffffffbce6faada7179e84f3b9cac2fc6325510390506000610229857fffffffff00000000ffffffffffffffffbce6faada7179e84f3b9cac2fc63255161053c565b905060007fffffffff00000000ffffffffffffffffbce6faada7179e84f3b9cac2fc6325518061025557fe5b858309905060007fffffffff00000000ffffffffffffffffbce6faada7179e84f3b9cac2fc6325518061028457fe5b84840990506000610295888a610554565b905061029f611477565b6102ab83858b856105db565b90506102b681610785565b9650505050505050949350505050565b6000806102f3837fffffffff00000000ffffffffffffffffbce6faada7179e84f3b9cac2fc63255161053c565b905060007fffffffff00000000ffffffffffffffffbce6faada7179e84f3b9cac2fc6325518061031f57fe5b828709905060007fffffffff00000000ffffffffffffffffbce6faada7179e84f3b9cac2fc6325518061034e57fe5b838709905061035b611477565b61036783838c8c6105db565b905060006103ca8260026003811061037b57fe5b602002015160037fffffffff00000001000000000000000000000000ffffffffffffffffffffffff037fffffffff00000001000000000000000000000000ffffffffffffffffffffffff6108d0565b905060007fffffffff00000001000000000000000000000000ffffffffffffffffffffffff806103f657fe5b828460006003811061040457fe5b6020020151099050808914965050505050505095945050505050565b60007fffffffff00000001000000000000000000000000ffffffffffffffffffffffff8061044a57fe5b7fffffffff00000001000000000000000000000000ffffffffffffffffffffffff8061047257fe5b7f5ac635d8aa3a93e7b3ebbd55769886bc651d06b0cc53b0f63bce3c3e27d2604b7fffffffff00000001000000000000000000000000ffffffffffffffffffffffff806104bb57fe5b857fffffffff00000001000000000000000000000000fffffffffffffffffffffffc09087fffffffff00000001000000000000000000000000ffffffffffffffffffffffff8061050757fe5b7fffffffff00000001000000000000000000000000ffffffffffffffffffffffff8061052f57fe5b8586098509089050919050565b600061054c8360028403846108d0565b905092915050565b6000806105ba61056385610420565b600460037fffffffff00000001000000000000000000000000ffffffffffffffffffffffff038161059057fe5b046001017fffffffff00000001000000000000000000000000ffffffffffffffffffffffff6108d0565b905060008360ff16146105d057806000036105d2565b805b91505092915050565b6105e3611477565b6105eb611477565b60405180606001604052807f6b17d1f2e12c4247f8bce6e563a440f277037d812deb33a0f4a13945d898c29681526020017f4fe342e2fe1a7f9b8ee7eb4a7c0f9e162bce33576b315ececbb6406837bf51f5815260200160018152509050610651611477565b604051806060016040528086815260200185815260200160018152509050610677611477565b6106818284610913565b905060007f800000000000000000000000000000000000000000000000000000000000000090506000888a1790505b600082821614156106cd57600282816106c557fe5b0491506106b0565b6000828b16146106f2576000828a16146106e9578295506106ed565b8495505b6106f6565b8395505b5b600115610778576002828161070857fe5b049150600082141561071957610778565b61072286610f58565b95506000828b161461075b576000828a1614610749576107428387610913565b9550610756565b6107538587610913565b95505b610773565b6000828a16146107725761076f8487610913565b95505b5b6106f7565b5050505050949350505050565b61078d611455565b60006107ca8360026003811061079f57fe5b60200201517fffffffff00000001000000000000000000000000ffffffffffffffffffffffff61053c565b905060007fffffffff00000001000000000000000000000000ffffffffffffffffffffffff806107f657fe5b82830990507fffffffff00000001000000000000000000000000ffffffffffffffffffffffff8061082357fe5b818560006003811061083157fe5b6020020151098360006002811061084457fe5b6020020181815250507fffffffff00000001000000000000000000000000ffffffffffffffffffffffff8061087557fe5b7fffffffff00000001000000000000000000000000ffffffffffffffffffffffff8061089d57fe5b828409856001600381106108ad57fe5b602002015109836001600281106108c057fe5b6020020181815250505050919050565b600060405160208152602080820152602060408201528460608201528360808201528260a082015260208160c08360006005619948f18151925050509392505050565b61091b611477565b60007fffffffff00000001000000000000000000000000ffffffffffffffffffffffff8061094557fe5b8360026003811061095257fe5b60200201518460026003811061096457fe5b602002015109905060007fffffffff00000001000000000000000000000000ffffffffffffffffffffffff8061099657fe5b82866000600381106109a457fe5b602002015109905060007fffffffff00000001000000000000000000000000ffffffffffffffffffffffff806109d657fe5b7fffffffff00000001000000000000000000000000ffffffffffffffffffffffff806109fe57fe5b86600260038110610a0b57fe5b6020020151850987600160038110610a1f57fe5b60200201510990507fffffffff00000001000000000000000000000000ffffffffffffffffffffffff80610a4f57fe5b86600260038110610a5c57fe5b602002015187600260038110610a6e57fe5b602002015109925060007fffffffff00000001000000000000000000000000ffffffffffffffffffffffff80610aa057fe5b8487600060038110610aae57fe5b602002015109905060007fffffffff00000001000000000000000000000000ffffffffffffffffffffffff80610ae057fe5b7fffffffff00000001000000000000000000000000ffffffffffffffffffffffff80610b0857fe5b89600260038110610b1557fe5b6020020151870988600160038110610b2957fe5b602002015109905081841415610b7f57808314610b6a5760405180606001604052806001815260200160018152602001600081525095505050505050610f52565b610b7388610f58565b95505050505050610f52565b7fffffffff00000001000000000000000000000000ffffffffffffffffffffffff80610ba757fe5b847fffffffff00000001000000000000000000000000ffffffffffffffffffffffff03830891507fffffffff00000001000000000000000000000000ffffffffffffffffffffffff80610bf657fe5b828309945060007fffffffff00000001000000000000000000000000ffffffffffffffffffffffff80610c2557fe5b86860990507fffffffff00000001000000000000000000000000ffffffffffffffffffffffff80610c5257fe5b86840995507fffffffff00000001000000000000000000000000ffffffffffffffffffffffff80610c7f57fe5b847fffffffff00000001000000000000000000000000ffffffffffffffffffffffff03830891507fffffffff00000001000000000000000000000000ffffffffffffffffffffffff80610cce57fe5b7fffffffff00000001000000000000000000000000ffffffffffffffffffffffff80610cf657fe5b826002097fffffffff00000001000000000000000000000000ffffffffffffffffffffffff037fffffffff00000001000000000000000000000000ffffffffffffffffffffffff80610d4457fe5b887fffffffff00000001000000000000000000000000ffffffffffffffffffffffff037fffffffff00000001000000000000000000000000ffffffffffffffffffffffff80610d8f57fe5b868709080887600060038110610da157fe5b6020020181815250507fffffffff00000001000000000000000000000000ffffffffffffffffffffffff80610dd257fe5b7fffffffff00000001000000000000000000000000ffffffffffffffffffffffff80610dfa57fe5b8786097fffffffff00000001000000000000000000000000ffffffffffffffffffffffff037fffffffff00000001000000000000000000000000ffffffffffffffffffffffff80610e4757fe5b7fffffffff00000001000000000000000000000000ffffffffffffffffffffffff80610e6f57fe5b8a600060038110610e7c57fe5b60200201517fffffffff00000001000000000000000000000000ffffffffffffffffffffffff03850885090887600160038110610eb557fe5b6020020181815250507fffffffff00000001000000000000000000000000ffffffffffffffffffffffff80610ee657fe5b7fffffffff00000001000000000000000000000000ffffffffffffffffffffffff80610f0e57fe5b89600260038110610f1b57fe5b60200201518b600260038110610f2d57fe5b602002015109840987600260038110610f4257fe5b6020020181815250505050505050505b92915050565b610f60611477565b600082600160038110610f6f57fe5b60200201511415610f9f576040518060600160405280600181526020016001815260200160008152509050611450565b60007fffffffff00000001000000000000000000000000ffffffffffffffffffffffff80610fc957fe5b83600260038110610fd657fe5b602002015184600260038110610fe857fe5b602002015109905060007fffffffff00000001000000000000000000000000ffffffffffffffffffffffff8061101a57fe5b7fffffffff00000001000000000000000000000000ffffffffffffffffffffffff8061104257fe5b7fffffffff00000001000000000000000000000000ffffffffffffffffffffffff8061106a57fe5b8660006003811061107757fe5b60200201518760006003811061108957fe5b6020020151096003097fffffffff00000001000000000000000000000000ffffffffffffffffffffffff806110ba57fe5b7fffffffff00000001000000000000000000000000ffffffffffffffffffffffff806110e257fe5b8586097fffffffff00000001000000000000000000000000fffffffffffffffffffffffc0908905060007fffffffff00000001000000000000000000000000ffffffffffffffffffffffff8061113457fe5b8560016003811061114157fe5b60200201518660016003811061115357fe5b602002015109905060007fffffffff00000001000000000000000000000000ffffffffffffffffffffffff8061118557fe5b7fffffffff00000001000000000000000000000000ffffffffffffffffffffffff806111ad57fe5b83886000600381106111bb57fe5b60200201510960040990507fffffffff00000001000000000000000000000000ffffffffffffffffffffffff806111ee57fe5b7fffffffff00000001000000000000000000000000ffffffffffffffffffffffff8061121657fe5b600283097fffffffff00000001000000000000000000000000ffffffffffffffffffffffff037fffffffff00000001000000000000000000000000ffffffffffffffffffffffff8061126457fe5b858609088560006003811061127557fe5b6020020181815250507fffffffff00000001000000000000000000000000ffffffffffffffffffffffff806112a657fe5b7fffffffff00000001000000000000000000000000ffffffffffffffffffffffff806112ce57fe5b876002600381106112db57fe5b6020020151886001600381106112ed57fe5b6020020151096002098560026003811061130357fe5b6020020181815250507fffffffff00000001000000000000000000000000ffffffffffffffffffffffff8061133457fe5b7fffffffff00000001000000000000000000000000ffffffffffffffffffffffff8061135c57fe5b7fffffffff00000001000000000000000000000000ffffffffffffffffffffffff8061138457fe5b8485096008097fffffffff00000001000000000000000000000000ffffffffffffffffffffffff037fffffffff00000001000000000000000000000000ffffffffffffffffffffffff806113d457fe5b7fffffffff00000001000000000000000000000000ffffffffffffffffffffffff806113fc57fe5b8860006003811061140957fe5b60200201517fffffffff00000001000000000000000000000000ffffffffffffffffffffffff0385088609088560016003811061144257fe5b602002018181525050505050505b919050565b6040518060400160405280600290602082028038833980820191505090505090565b604051806060016040528060039060208202803883398082019150509050509056fea165627a7a72305820f7da4dfcce7e0de805bdf22f7649b2899772146571bf75696e8c50c9aeda1a610029",
  "source": "pragma solidity >=0.4.0 <0.7.0;\n\nimport \"./ECMath.sol\";\n\ncontract ERC20 {\n\tfunction totalSupply() public view returns (uint256);\n    function balanceOf(address who) public view returns (uint256);\n    function transfer(address to, uint256 value) public returns (bool);\n    event Transfer(address indexed from, address indexed to, uint256 value);\n    event Burn(address indexed burner, uint256 value);\n}\n\n//import the NEO address verifying library\n\n/**\n * The lrnTOlrt maps LRT coin from NEO blockchain to LRN coin on TRON blockchain\n using a smart contract on the TRON network (coded with solidity)\n */\ncontract lrnTOlrt\n{\n\t//store the tronWallet address, neoWallet address and neo wallet signature\n\taddress payable tronWallet;\n\tstring neoWallet;\n\tbytes32 neoSignature;\n\n\taddress owner; //the owner must be sender of the message\n\n\tERC20 lrt;\n\tECMath math;\n\n\tconstructor(address _lrtAddress) public\n\t{\n\t\towner = msg.sender;\n\t\t//Define LRT as an ERC20 token\n\t\tlrt = ERC20(_lrtAddress);\n\t\tmath = new ECMath();\n\t}\n\n\t//require owner of neoAddress to be the sender\n\tmodifier onlyOwner\n    {\n        require (msg.sender == owner, \"Not owner of contract\");\n        _;\n    }\n\n\t//need a mapping from NEO-address to number of claimable LRT tokens\n\tmapping (string => uint) neoBalances;\n\t//***THIS WON'T WORK, NEED AN ORACLE (or a script) TO MAP THIS OUTSIDE THE CONTRACT\n    //For now, we will just assume we know the balances in each account for testing\n\n\tfunction setNeoBalance(string memory neoAddr, uint balance) public onlyOwner\n\t{\n\t\tneoBalances[neoAddr] = balance;\n\t}\n\n\t//send the coin to the tronAddress only if the sender is the owner\n\t//... and NEO address is valid\n\tfunction claim(address payable tronAddr, string memory neoAddr, bytes memory neoSig) public\n\t{\n\t\t//take out the neo wallet address\n\t\tneoWallet = neoAddr;\n\t\t//take out the tron wallet address\n\t\ttronWallet = tronAddr;\n\n\t\t//1) after mapping neo wallet balance, need something to\n\t\t//... convert LRN to value of LRT coin\n\t\t//2) transfer amount from neoWallet to tronWallet, will work something\n\t\t//... like this\n\t\t//\t\tneoWallet.transfer(neoBalance[tronWallet]);\n\n\t\tif (verifyClaim(tronAddr, neoSig))\n\t\t{\n    \t\trequire(lrt.transfer(tronWallet, neoBalances[neoWallet]), \"Claim failed\");\n\t\t\tneoBalances[neoWallet] = 0;\n\t\t}\n\t}\n\n\tfunction verifyClaim(address tronAddr, bytes memory neoSig) public returns (bool)\n\t{\n\t\tbytes memory tronBytes = abi.encodePacked(tronAddr);\n\t\tuint256 e = bytesToUintX(tronBytes, 0, 20);\n\n\t\tuint256 r = bytesToUintX(neoSig, 2, 64);\n\t\tuint256 s = bytesToUintX(neoSig, 65, 64);\n\t\tuint8 v = (uint8)(bytesToUintX(neoSig, 129, 2));\n\n\t\tuint256[2] memory addrCoordinates = math.recover(e, v, r, s);\n\n\t\treturn math.verify(addrCoordinates[0], addrCoordinates[1], e, r, s);\n\t}\n\n\t//Helper funtion to convert bytes to uint, pulled from https://github.com/Loopring/protocols/blob/master/packages/loopring_v3/contracts/lib/BytesUtil.sol\n\tfunction bytesToUintX(bytes memory b, uint offset, uint numBytes) private pure returns (uint data)\n    {\n        require(b.length >= offset + numBytes, \"INVALID_SIZE\");\n        assembly {\n            data := mload(add(add(b, numBytes), offset))\n        }\n    }\n}",
  "sourcePath": "C:/Users/super/downloads/lrn2lrt/contracts/lrnTOlrt.sol",
  "compiler": {
    "name": "solc",
    "version": "0.5.8+commit.23d335f2.Emscripten.clang"
  },
  "schemaVersion": "3.0.10",
  "updatedAt": "2019-06-19T04:54:47.250Z",
  "devdoc": {
    "methods": {}
  },
  "userdoc": {
    "methods": {},
    "notice": "The lrnTOlrt maps LRT coin from NEO blockchain to LRN coin on TRON blockchain using a smart contract on the TRON network (coded with solidity)"
  }
}