{
  "contractName": "lrnTOlrt",
  "abi": [
    {
      "inputs": [],
      "payable": false,
      "stateMutability": "nonpayable",
      "type": "constructor"
    },
    {
      "constant": false,
      "inputs": [
        {
          "name": "balance",
          "type": "uint256"
        },
        {
          "name": "neoAddr",
          "type": "address"
        }
      ],
      "name": "setNeoBalance",
      "outputs": [],
      "payable": false,
      "stateMutability": "nonpayable",
      "type": "function"
    },
    {
      "constant": false,
      "inputs": [
        {
          "name": "tronAddr",
          "type": "address"
        },
        {
          "name": "neoAddr",
          "type": "address"
        }
      ],
      "name": "claim",
      "outputs": [],
      "payable": false,
      "stateMutability": "nonpayable",
      "type": "function"
    }
  ],
  "bytecode": "0x608060405234801561001057600080fd5b5033600360006101000a81548173ffffffffffffffffffffffffffffffffffffffff021916908373ffffffffffffffffffffffffffffffffffffffff1602179055506102af806100616000396000f3fe608060405234801561001057600080fd5b50600436106100365760003560e01c806321c0b3421461003b578063aa4125be1461009f575b600080fd5b61009d6004803603604081101561005157600080fd5b81019080803573ffffffffffffffffffffffffffffffffffffffff169060200190929190803573ffffffffffffffffffffffffffffffffffffffff1690602001909291905050506100ed565b005b6100eb600480360360408110156100b557600080fd5b8101908080359060200190929190803573ffffffffffffffffffffffffffffffffffffffff16906020019092919050505061023b565b005b80600160006101000a81548173ffffffffffffffffffffffffffffffffffffffff021916908373ffffffffffffffffffffffffffffffffffffffff160217905550816000806101000a81548173ffffffffffffffffffffffffffffffffffffffff021916908373ffffffffffffffffffffffffffffffffffffffff1602179055506000809054906101000a900473ffffffffffffffffffffffffffffffffffffffff1673ffffffffffffffffffffffffffffffffffffffff166108fc60046000600160009054906101000a900473ffffffffffffffffffffffffffffffffffffffff1673ffffffffffffffffffffffffffffffffffffffff1673ffffffffffffffffffffffffffffffffffffffff168152602001908152602001600020549081150290604051600060405180830381858888f19350505050158015610236573d6000803e3d6000fd5b505050565b81600460008373ffffffffffffffffffffffffffffffffffffffff1673ffffffffffffffffffffffffffffffffffffffff16815260200190815260200160002081905550505056fea165627a7a723058209d5ca34894903aa520d2a54415a91817f91d7ba4983e2acd75fff764523aaf840029",
  "source": "pragma solidity >=0.4.0 <0.7.0;\n\n//import the NEO address verifying library\n\n/**\n * The lrnTOlrt maps LRT coin from NEO blockchain to LRN coin on TRON blockchain\n using a smart contract on the TRON network (coded with solidity)\n */\ncontract lrnTOlrt\n{\n\t//store the tronWallet address, neoWallet address and neo wallet signature\n\taddress payable tronWallet;\n\taddress neoWallet;\n\tbytes32 neoSignature;\n\n\taddress owner; //the owner must be sender of the message\n\n\tconstructor() public\n\t{\n\t\towner = msg.sender;\n\t}\n\n\t//require owner of neoAddress to be the sender\n\tmodifier onlyOwner\n    {\n        require (msg.sender == owner);\n        _;\n    }\n\n\t//need a mapping from NEO-address to number of claimable LRT tokens\n\tmapping (address => uint) neoBalances;\n\t//***THIS WON'T WORK, NEED AN ORACLE (or a script) TO MAP THIS OUTSIDE THE CONTRACT\n    //For now, we will just assume we know the balances in each account for testing\n\n\tfunction setNeoBalance(uint balance, address neoAddr) public\n\t{\n\t\tneoBalances[neoAddr] = balance;\n\t}\n\n\t//send the coin to the tronAddress only if the sender is the owner\n\t//... and NEO address is valid\n\tfunction claim(address payable tronAddr, address neoAddr) public\n\t{\n\t\t//take out the neo wallet address\n\t\tneoWallet = neoAddr;\n\t\t//take out the tron wallet address\n\t\ttronWallet = tronAddr;\n\n\t\t//1) after mapping neo wallet balance, need something to\n\t\t//... convert LRN to value of LRT coin\n\t\t//2) transfer amount from neoWallet to tronWallet, will work something\n\t\t//... like this\n\t\t//\t\tneoWallet.transfer(neoBalance[tronWallet]);\n\n        tronWallet.transfer(neoBalances[neoWallet]);\n\t}\n}",
  "sourcePath": "C:/Users/super/downloads/lrn2lrt/contracts/lrnTOlrt.sol",
  "compiler": {
    "name": "solc",
    "version": "0.5.8+commit.23d335f2.Emscripten.clang"
  },
  "schemaVersion": "3.0.10",
  "updatedAt": "2019-06-06T10:48:57.174Z",
  "devdoc": {
    "methods": {}
  },
  "userdoc": {
    "methods": {},
    "notice": "The lrnTOlrt maps LRT coin from NEO blockchain to LRN coin on TRON blockchain using a smart contract on the TRON network (coded with solidity)"
  }
}