{
  "contractName": "lrnTOlrt",
  "abi": [
    {
      "inputs": [],
      "payable": false,
      "stateMutability": "nonpayable",
      "type": "constructor"
    },
    {
      "constant": false,
      "inputs": [
        {
          "name": "neoAddr",
          "type": "bytes32"
        },
        {
          "name": "balance",
          "type": "uint256"
        },
        {
          "name": "neoSig",
          "type": "bytes32"
        }
      ],
      "name": "setNeoBalance",
      "outputs": [],
      "payable": false,
      "stateMutability": "nonpayable",
      "type": "function"
    },
    {
      "constant": false,
      "inputs": [
        {
          "name": "tronAddr",
          "type": "address"
        },
        {
          "name": "neoAddr",
          "type": "bytes32"
        },
        {
          "name": "neoSig",
          "type": "bytes32"
        }
      ],
      "name": "claim",
      "outputs": [],
      "payable": false,
      "stateMutability": "nonpayable",
      "type": "function"
    }
  ],
  "bytecode": "0x608060405234801561001057600080fd5b5033600360006101000a81548173ffffffffffffffffffffffffffffffffffffffff021916908373ffffffffffffffffffffffffffffffffffffffff160217905550610213806100616000396000f3fe60806040526004361061004c576000357c0100000000000000000000000000000000000000000000000000000000900463ffffffff168063399a6e7714610051578063fe8f49cb14610096575b600080fd5b34801561005d57600080fd5b506100946004803603604081101561007457600080fd5b8101908080359060200190929190803590602001909291905050506100fb565b005b3480156100a257600080fd5b506100f9600480360360608110156100b957600080fd5b81019080803573ffffffffffffffffffffffffffffffffffffffff1690602001909291908035906020019092919080359060200190929190505050610117565b005b8060046000848152602001908152602001600020819055505050565b8160018190555080600281905550826000806101000a81548173ffffffffffffffffffffffffffffffffffffffff021916908373ffffffffffffffffffffffffffffffffffffffff1602179055506000809054906101000a900473ffffffffffffffffffffffffffffffffffffffff1673ffffffffffffffffffffffffffffffffffffffff166108fc600460006001548152602001908152602001600020549081150290604051600060405180830381858888f193505050501580156101e1573d6000803e3d6000fd5b5050505056fea165627a7a72305820e09697b20a181fa651722dc76f4330f5e3e71546988f96f7858f45956020881b0029",
  "source": "pragma solidity >=0.4.0 <0.7.0;\n\n//import the NEO address verifying library\n\n/**\n * The lrnTOlrt maps LRT coin from NEO blockchain to LRN coin on TRON blockchain\n using a smart contract on the TRON network (coded with solidity)\n */\ncontract lrnTOlrt\n{\n\t//store the tronWallet address, neoWallet address and neo wallet signature\n\taddress payable tronWallet;\n\tbytes32 neoWallet;\n\tbytes32 neoSignature;\n\n\taddress owner; //the owner must be sender of the message\n\n\tconstructor() public\n\t{\n\t\towner = msg.sender;\n\t}\n\n\t//require owner of neoAddress to be the sender\n\tmodifier onlyOwner\n    {\n        require (msg.sender == owner);\n        _;\n    }\n\n\t//need a mapping from NEO-address to number of claimable LRT tokens\n\tmapping (bytes32 => uint) neoBalances;\n\t//***THIS WON'T WORK, NEED AN ORACLE (or a script) TO MAP THIS OUTSIDE THE CONTRACT\n    //For now, we will just assume we know the balances in each account for testing\n\n\tfunction setNeoBalance(bytes32 neoAddr, uint balance) public\n\t{\n\t\tneoBalances[neoAddr] = balance;\n\t}\n\n\t//send the coin to the tronAddress only if the sender is the owner\n\t//... and NEO address is valid\n\tfunction claim(address payable tronAddr, bytes32 neoAddr, bytes32 neoSig) public\n\t{\n\t\t//take out the neo wallet address\n\t\tneoWallet = neoAddr;\n\t\t//take out the neo wallet signature\n\t\tneoSignature = neoSig;\n\t\t//take out the tron wallet address\n\t\ttronWallet = tronAddr;\n\n\t\t//1) after mapping neo wallet balance, need something to\n\t\t//... convert LRN to value of LRT coin\n\t\t//2) transfer amount from neoWallet to tronWallet, will work something\n\t\t//... like this\n\t\t//\t\tneoWallet.transfer(neoBalance[tronWallet]);\n\n\t\t\n        tronWallet.transfer(neoBalances[neoWallet]);\n\t}\n}",
  "sourcePath": "C:/Users/super/Downloads/lrn2lrt/contracts/lrnTOlrt.sol",
  "compiler": {
    "name": "solc",
    "version": "0.5.0+commit.1d4f565a.Emscripten.clang"
  },
  "schemaVersion": "3.0.9",
  "updatedAt": "2019-06-06T09:57:00.408Z",
  "devdoc": {
    "methods": {}
  },
  "userdoc": {
    "methods": {},
    "notice": "The lrnTOlrt maps LRT coin from NEO blockchain to LRN coin on TRON blockchain using a smart contract on the TRON network (coded with solidity)"
  }
}